{
  "_format": "hh-sol-artifact-1",
  "contractName": "APISubscription",
  "sourceName": "contracts/Subscription.sol",
  "abi": [
    {
      "inputs": [
        {
          "internalType": "address",
          "name": "_token",
          "type": "address"
        },
        {
          "internalType": "uint256",
          "name": "_pricePerCredit",
          "type": "uint256"
        }
      ],
      "stateMutability": "nonpayable",
      "type": "constructor"
    },
    {
      "anonymous": false,
      "inputs": [
        {
          "indexed": true,
          "internalType": "address",
          "name": "subscriber",
          "type": "address"
        },
        {
          "indexed": false,
          "internalType": "uint256",
          "name": "amount",
          "type": "uint256"
        }
      ],
      "name": "CreditsConsumed",
      "type": "event"
    },
    {
      "anonymous": false,
      "inputs": [
        {
          "indexed": true,
          "internalType": "address",
          "name": "subscriber",
          "type": "address"
        },
        {
          "indexed": false,
          "internalType": "uint256",
          "name": "amount",
          "type": "uint256"
        },
        {
          "indexed": false,
          "internalType": "uint256",
          "name": "pricePerCredit",
          "type": "uint256"
        }
      ],
      "name": "CreditsPurchased",
      "type": "event"
    },
    {
      "inputs": [],
      "name": "admin",
      "outputs": [
        {
          "internalType": "address",
          "name": "",
          "type": "address"
        }
      ],
      "stateMutability": "view",
      "type": "function"
    },
    {
      "inputs": [
        {
          "internalType": "address",
          "name": "subscriber",
          "type": "address"
        },
        {
          "internalType": "uint256",
          "name": "amount",
          "type": "uint256"
        }
      ],
      "name": "deductCredits",
      "outputs": [],
      "stateMutability": "nonpayable",
      "type": "function"
    },
    {
      "inputs": [],
      "name": "pricePerCredit",
      "outputs": [
        {
          "internalType": "uint256",
          "name": "",
          "type": "uint256"
        }
      ],
      "stateMutability": "view",
      "type": "function"
    },
    {
      "inputs": [
        {
          "internalType": "uint256",
          "name": "_amount",
          "type": "uint256"
        }
      ],
      "name": "purchaseCredits",
      "outputs": [],
      "stateMutability": "nonpayable",
      "type": "function"
    },
    {
      "inputs": [
        {
          "internalType": "uint256",
          "name": "_newPrice",
          "type": "uint256"
        }
      ],
      "name": "setPricePerCredit",
      "outputs": [],
      "stateMutability": "nonpayable",
      "type": "function"
    },
    {
      "inputs": [
        {
          "internalType": "address",
          "name": "",
          "type": "address"
        }
      ],
      "name": "subscriptionCredits",
      "outputs": [
        {
          "internalType": "uint256",
          "name": "",
          "type": "uint256"
        }
      ],
      "stateMutability": "view",
      "type": "function"
    },
    {
      "inputs": [],
      "name": "watchToken",
      "outputs": [
        {
          "internalType": "contract IERC20",
          "name": "",
          "type": "address"
        }
      ],
      "stateMutability": "view",
      "type": "function"
    },
    {
      "inputs": [
        {
          "internalType": "address",
          "name": "_to",
          "type": "address"
        },
        {
          "internalType": "uint256",
          "name": "_amount",
          "type": "uint256"
        }
      ],
      "name": "withdrawTokens",
      "outputs": [],
      "stateMutability": "nonpayable",
      "type": "function"
    }
  ],
  "bytecode": "0x60806040523480156200001157600080fd5b506040516200107d3803806200107d83398181016040528101906200003791906200016c565b336000806101000a81548173ffffffffffffffffffffffffffffffffffffffff021916908373ffffffffffffffffffffffffffffffffffffffff16021790555081600160006101000a81548173ffffffffffffffffffffffffffffffffffffffff021916908373ffffffffffffffffffffffffffffffffffffffff160217905550806002819055505050620001b3565b600080fd5b600073ffffffffffffffffffffffffffffffffffffffff82169050919050565b6000620000f982620000cc565b9050919050565b6200010b81620000ec565b81146200011757600080fd5b50565b6000815190506200012b8162000100565b92915050565b6000819050919050565b620001468162000131565b81146200015257600080fd5b50565b60008151905062000166816200013b565b92915050565b60008060408385031215620001865762000185620000c7565b5b600062000196858286016200011a565b9250506020620001a98582860162000155565b9150509250929050565b610eba80620001c36000396000f3fe608060405234801561001057600080fd5b50600436106100885760003560e01c806382596f011161005b57806382596f0114610113578063bef101fb1461012f578063f3ab90c31461014b578063f851a4401461016957610088565b806306b091f91461008d57806309bb955f146100a95780631c2b3658146100c75780634979a72a146100f7575b600080fd5b6100a760048036038101906100a29190610929565b610187565b005b6100b16102ba565b6040516100be91906109c8565b60405180910390f35b6100e160048036038101906100dc91906109e3565b6102e0565b6040516100ee9190610a1f565b60405180910390f35b610111600480360381019061010c9190610a3a565b6102f8565b005b61012d60048036038101906101289190610929565b610390565b005b61014960048036038101906101449190610a3a565b610547565b005b610153610866565b6040516101609190610a1f565b60405180910390f35b61017161086c565b60405161017e9190610a76565b60405180910390f35b60008054906101000a900473ffffffffffffffffffffffffffffffffffffffff1673ffffffffffffffffffffffffffffffffffffffff163373ffffffffffffffffffffffffffffffffffffffff1614610215576040517f08c379a000000000000000000000000000000000000000000000000000000000815260040161020c90610aee565b60405180910390fd5b600160009054906101000a900473ffffffffffffffffffffffffffffffffffffffff1673ffffffffffffffffffffffffffffffffffffffff1663a9059cbb83836040518363ffffffff1660e01b8152600401610272929190610b0e565b6020604051808303816000875af1158015610291573d6000803e3d6000fd5b505050506040513d601f19601f820116820180604052508101906102b59190610b6f565b505050565b600160009054906101000a900473ffffffffffffffffffffffffffffffffffffffff1681565b60036020528060005260406000206000915090505481565b60008054906101000a900473ffffffffffffffffffffffffffffffffffffffff1673ffffffffffffffffffffffffffffffffffffffff163373ffffffffffffffffffffffffffffffffffffffff1614610386576040517f08c379a000000000000000000000000000000000000000000000000000000000815260040161037d90610aee565b60405180910390fd5b8060028190555050565b60008054906101000a900473ffffffffffffffffffffffffffffffffffffffff1673ffffffffffffffffffffffffffffffffffffffff163373ffffffffffffffffffffffffffffffffffffffff161461041e576040517f08c379a000000000000000000000000000000000000000000000000000000000815260040161041590610aee565b60405180910390fd5b80600360008473ffffffffffffffffffffffffffffffffffffffff1673ffffffffffffffffffffffffffffffffffffffff168152602001908152602001600020541161049f576040517f08c379a000000000000000000000000000000000000000000000000000000000815260040161049690610be8565b60405180910390fd5b80600360008473ffffffffffffffffffffffffffffffffffffffff1673ffffffffffffffffffffffffffffffffffffffff16815260200190815260200160002060008282546104ee9190610c37565b925050819055508173ffffffffffffffffffffffffffffffffffffffff167f775800aada81e30e0943431137c4bfd3765faa8e987ae1f2aca9992fe95ecd448260405161053b9190610a1f565b60405180910390a25050565b6000600254826105579190610c6b565b905080600160009054906101000a900473ffffffffffffffffffffffffffffffffffffffff1673ffffffffffffffffffffffffffffffffffffffff166370a08231336040518263ffffffff1660e01b81526004016105b59190610a76565b602060405180830381865afa1580156105d2573d6000803e3d6000fd5b505050506040513d601f19601f820116820180604052508101906105f69190610cc2565b1015610637576040517f08c379a000000000000000000000000000000000000000000000000000000000815260040161062e90610d3b565b60405180910390fd5b80600160009054906101000a900473ffffffffffffffffffffffffffffffffffffffff1673ffffffffffffffffffffffffffffffffffffffff1663dd62ed3e33306040518363ffffffff1660e01b8152600401610695929190610d5b565b602060405180830381865afa1580156106b2573d6000803e3d6000fd5b505050506040513d601f19601f820116820180604052508101906106d69190610cc2565b1015610717576040517f08c379a000000000000000000000000000000000000000000000000000000000815260040161070e90610dd0565b60405180910390fd5b600160009054906101000a900473ffffffffffffffffffffffffffffffffffffffff1673ffffffffffffffffffffffffffffffffffffffff166323b872dd3330846040518463ffffffff1660e01b815260040161077693929190610df0565b6020604051808303816000875af1158015610795573d6000803e3d6000fd5b505050506040513d601f19601f820116820180604052508101906107b99190610b6f565b5081600360003373ffffffffffffffffffffffffffffffffffffffff1673ffffffffffffffffffffffffffffffffffffffff16815260200190815260200160002060008282546108099190610e27565b925050819055503373ffffffffffffffffffffffffffffffffffffffff167ffb82fc1c5adf84899709e87563b69dd5f4ac33320f1c60dbca744bec717eb90f8360025460405161085a929190610e5b565b60405180910390a25050565b60025481565b60008054906101000a900473ffffffffffffffffffffffffffffffffffffffff1681565b600080fd5b600073ffffffffffffffffffffffffffffffffffffffff82169050919050565b60006108c082610895565b9050919050565b6108d0816108b5565b81146108db57600080fd5b50565b6000813590506108ed816108c7565b92915050565b6000819050919050565b610906816108f3565b811461091157600080fd5b50565b600081359050610923816108fd565b92915050565b600080604083850312156109405761093f610890565b5b600061094e858286016108de565b925050602061095f85828601610914565b9150509250929050565b6000819050919050565b600061098e61098961098484610895565b610969565b610895565b9050919050565b60006109a082610973565b9050919050565b60006109b282610995565b9050919050565b6109c2816109a7565b82525050565b60006020820190506109dd60008301846109b9565b92915050565b6000602082840312156109f9576109f8610890565b5b6000610a07848285016108de565b91505092915050565b610a19816108f3565b82525050565b6000602082019050610a346000830184610a10565b92915050565b600060208284031215610a5057610a4f610890565b5b6000610a5e84828501610914565b91505092915050565b610a70816108b5565b82525050565b6000602082019050610a8b6000830184610a67565b92915050565b600082825260208201905092915050565b7f4e6f74205065726d697474656400000000000000000000000000000000000000600082015250565b6000610ad8600d83610a91565b9150610ae382610aa2565b602082019050919050565b60006020820190508181036000830152610b0781610acb565b9050919050565b6000604082019050610b236000830185610a67565b610b306020830184610a10565b9392505050565b60008115159050919050565b610b4c81610b37565b8114610b5757600080fd5b50565b600081519050610b6981610b43565b92915050565b600060208284031215610b8557610b84610890565b5b6000610b9384828501610b5a565b91505092915050565b7f496e73756666696369656e742063726564697473000000000000000000000000600082015250565b6000610bd2601483610a91565b9150610bdd82610b9c565b602082019050919050565b60006020820190508181036000830152610c0181610bc5565b9050919050565b7f4e487b7100000000000000000000000000000000000000000000000000000000600052601160045260246000fd5b6000610c42826108f3565b9150610c4d836108f3565b9250828203905081811115610c6557610c64610c08565b5b92915050565b6000610c76826108f3565b9150610c81836108f3565b9250828202610c8f816108f3565b91508282048414831517610ca657610ca5610c08565b5b5092915050565b600081519050610cbc816108fd565b92915050565b600060208284031215610cd857610cd7610890565b5b6000610ce684828501610cad565b91505092915050565b7f496e73756666696369656e742062616c616e6365000000000000000000000000600082015250565b6000610d25601483610a91565b9150610d3082610cef565b602082019050919050565b60006020820190508181036000830152610d5481610d18565b9050919050565b6000604082019050610d706000830185610a67565b610d7d6020830184610a67565b9392505050565b7f496e73756666696369656e7420616c6c6f77616e636500000000000000000000600082015250565b6000610dba601683610a91565b9150610dc582610d84565b602082019050919050565b60006020820190508181036000830152610de981610dad565b9050919050565b6000606082019050610e056000830186610a67565b610e126020830185610a67565b610e1f6040830184610a10565b949350505050565b6000610e32826108f3565b9150610e3d836108f3565b9250828201905080821115610e5557610e54610c08565b5b92915050565b6000604082019050610e706000830185610a10565b610e7d6020830184610a10565b939250505056fea2646970667358221220825a8ddce49629f74e46f6cbda9129291df42a427059ccde41b34aa3d32dfb9864736f6c63430008180033",
  "linkReferences": {},
  "deployedLinkReferences": {}
}